{
  "contractName": "GameBoard",
  "abi": [
    {
      "inputs": [],
      "name": "newGame",
      "outputs": [
        {
          "internalType": "string",
          "name": "",
          "type": "string"
        }
      ],
      "stateMutability": "nonpayable",
      "type": "function"
    },
    {
      "inputs": [],
      "name": "moveLeft",
      "outputs": [],
      "stateMutability": "nonpayable",
      "type": "function"
    },
    {
      "inputs": [],
      "name": "moveRight",
      "outputs": [],
      "stateMutability": "nonpayable",
      "type": "function"
    },
    {
      "inputs": [],
      "name": "getBoard",
      "outputs": [
        {
          "internalType": "uint8[4][4]",
          "name": "",
          "type": "uint8[4][4]"
        }
      ],
      "stateMutability": "view",
      "type": "function",
      "constant": true
    },
    {
      "inputs": [],
      "name": "getScore",
      "outputs": [
        {
          "internalType": "uint256",
          "name": "",
          "type": "uint256"
        }
      ],
      "stateMutability": "view",
      "type": "function",
      "constant": true
    }
  ],
  "bytecode": "0x608060405234801561001057600080fd5b50611112806100206000396000f3fe608060405234801561001057600080fd5b50600436106100575760003560e01c80633264a34b1461005c578063784e9f951461007a5780637d03f5f314610084578063afd82067146100a2578063ea579758146100c0575b600080fd5b6100646100ca565b6040516100719190610da8565b60405180910390f35b610082610170565b005b61008c610550565b6040516100999190610e54565b60405180910390f35b6100aa610639565b6040516100b79190610e8f565b60405180910390f35b6100c8610643565b005b6100d2610c05565b6000600480602002604051908101604052809291906000905b8282101561016757838201600480602002604051908101604052809291908260048015610153576020028201916000905b82829054906101000a900460ff1660ff168152602001906001019060208260000104928301926001038202915080841161011c5790505b5050505050815260200190600101906100eb565b50505050905090565b60005b600481101561053d576000600290505b600081106105295760008083600481106101a05761019f610eaa565b5b0182600481106101b3576101b2610eaa565b5b602091828204019190069054906101000a900460ff1660ff16146105165760008190505b600381108015610231575060008084600481106101f7576101f6610eaa565b5b016001836102059190610f08565b6004811061021657610215610eaa565b5b602091828204019190069054906101000a900460ff1660ff16145b15610321576000836004811061024a57610249610eaa565b5b01816004811061025d5761025c610eaa565b5b602091828204019190069054906101000a900460ff166000846004811061028757610286610eaa565b5b016001836102959190610f08565b600481106102a6576102a5610eaa565b5b602091828204019190066101000a81548160ff021916908360ff16021790555060008084600481106102db576102da610eaa565b5b0182600481106102ee576102ed610eaa565b5b602091828204019190066101000a81548160ff021916908360ff160217905550808061031990610f3c565b9150506101d7565b6003811080156103ba5750600083600481106103405761033f610eaa565b5b01816004811061035357610352610eaa565b5b602091828204019190069054906101000a900460ff1660ff16600084600481106103805761037f610eaa565b5b0160018361038e9190610f08565b6004811061039f5761039e610eaa565b5b602091828204019190069054906101000a900460ff1660ff16145b15610514576002600084600481106103d5576103d4610eaa565b5b016001836103e39190610f08565b600481106103f4576103f3610eaa565b5b602091828204019190069054906101000a900460ff166104149190610f84565b6000846004811061042857610427610eaa565b5b016001836104369190610f08565b6004811061044757610446610eaa565b5b602091828204019190066101000a81548160ff021916908360ff1602179055506000836004811061047b5761047a610eaa565b5b016001826104899190610f08565b6004811061049a57610499610eaa565b5b602091828204019190069054906101000a900460ff1660ff16600460008282546104c49190610f08565b9250508190555060008084600481106104e0576104df610eaa565b5b0182600481106104f3576104f2610eaa565b5b602091828204019190066101000a81548160ff021916908360ff1602179055505b505b808061052190610fc1565b915050610183565b50808061053590610f3c565b915050610173565b50610546610a24565b61054e610a24565b565b606060005b60048160ff1610156105e55760005b60048160ff1610156105d1576000808360ff166004811061058857610587610eaa565b5b018260ff166004811061059e5761059d610eaa565b5b602091828204019190066101000a81548160ff021916908360ff16021790555080806105c990610fea565b915050610564565b5080806105dd90610fea565b915050610555565b5060006004819055506105f6610a24565b6105fe610a24565b6040518060400160405280600c81526020017f48656c6c6f20776f726c64210000000000000000000000000000000000000000815250905090565b6000600454905090565b60005b6004811015610a11576000600190505b60048110156109fd57600080836004811061067457610673610eaa565b5b01826004811061068757610686610eaa565b5b602091828204019190069054906101000a900460ff1660ff16146109ea5760008190505b600081118015610705575060008084600481106106cb576106ca610eaa565b5b016001836106d99190611013565b600481106106ea576106e9610eaa565b5b602091828204019190069054906101000a900460ff1660ff16145b156107f5576000836004811061071e5761071d610eaa565b5b01816004811061073157610730610eaa565b5b602091828204019190069054906101000a900460ff166000846004811061075b5761075a610eaa565b5b016001836107699190611013565b6004811061077a57610779610eaa565b5b602091828204019190066101000a81548160ff021916908360ff16021790555060008084600481106107af576107ae610eaa565b5b0182600481106107c2576107c1610eaa565b5b602091828204019190066101000a81548160ff021916908360ff16021790555080806107ed90610fc1565b9150506106ab565b60008111801561088e57506000836004811061081457610813610eaa565b5b01816004811061082757610826610eaa565b5b602091828204019190069054906101000a900460ff1660ff166000846004811061085457610853610eaa565b5b016001836108629190611013565b6004811061087357610872610eaa565b5b602091828204019190069054906101000a900460ff1660ff16145b156109e8576002600084600481106108a9576108a8610eaa565b5b016001836108b79190611013565b600481106108c8576108c7610eaa565b5b602091828204019190069054906101000a900460ff166108e89190610f84565b600084600481106108fc576108fb610eaa565b5b0160018361090a9190611013565b6004811061091b5761091a610eaa565b5b602091828204019190066101000a81548160ff021916908360ff1602179055506000836004811061094f5761094e610eaa565b5b0160018261095d9190611013565b6004811061096e5761096d610eaa565b5b602091828204019190069054906101000a900460ff1660ff16600460008282546109989190610f08565b9250508190555060008084600481106109b4576109b3610eaa565b5b0182600481106109c7576109c6610eaa565b5b602091828204019190066101000a81548160ff021916908360ff1602179055505b505b80806109f590610f3c565b915050610656565b508080610a0990610f3c565b915050610646565b50610a1a610a24565b610a22610a24565b565b6000805b60048160ff161015610ac55760005b60048160ff161015610ab1576000808360ff1660048110610a5b57610a5a610eaa565b5b018260ff1660048110610a7157610a70610eaa565b5b602091828204019190069054906101000a900460ff1660ff1603610a9e578280610a9a90610fea565b9350505b8080610aa990610fea565b915050610a37565b508080610abd90610fea565b915050610a28565b5060008160ff1603610ad75750610c03565b600060018260ff1642610aea9190611076565b610af491906110a7565b90506000915060005b60048160ff161015610bff5760005b60048160ff161015610beb576000808360ff1660048110610b3057610b2f610eaa565b5b018260ff1660048110610b4657610b45610eaa565b5b602091828204019190069054906101000a900460ff1660ff1603610bd8578380610b6f90610fea565b9450508260ff168460ff1603610bd757600260008360ff1660048110610b9857610b97610eaa565b5b018260ff1660048110610bae57610bad610eaa565b5b602091828204019190066101000a81548160ff021916908360ff16021790555050505050610c03565b5b8080610be390610fea565b915050610b0c565b508080610bf790610fea565b915050610afd565b5050505b565b60405180608001604052806004905b610c1c610c32565b815260200190600190039081610c145790505090565b6040518060800160405280600490602082028036833780820191505090505090565b600060049050919050565b600081905092915050565b6000819050919050565b600060049050919050565b600081905092915050565b6000819050919050565b600060ff82169050919050565b610caa81610c94565b82525050565b6000610cbc8383610ca1565b60208301905092915050565b6000602082019050919050565b610cde81610c74565b610ce88184610c7f565b9250610cf382610c8a565b8060005b83811015610d24578151610d0b8782610cb0565b9650610d1683610cc8565b925050600181019050610cf7565b505050505050565b6000610d388383610cd5565b60808301905092915050565b6000602082019050919050565b610d5a81610c54565b610d648184610c5f565b9250610d6f82610c6a565b8060005b83811015610da0578151610d878782610d2c565b9650610d9283610d44565b925050600181019050610d73565b505050505050565b600061020082019050610dbe6000830184610d51565b92915050565b600081519050919050565b600082825260208201905092915050565b60005b83811015610dfe578082015181840152602081019050610de3565b60008484015250505050565b6000601f19601f8301169050919050565b6000610e2682610dc4565b610e308185610dcf565b9350610e40818560208601610de0565b610e4981610e0a565b840191505092915050565b60006020820190508181036000830152610e6e8184610e1b565b905092915050565b6000819050919050565b610e8981610e76565b82525050565b6000602082019050610ea46000830184610e80565b92915050565b7f4e487b7100000000000000000000000000000000000000000000000000000000600052603260045260246000fd5b7f4e487b7100000000000000000000000000000000000000000000000000000000600052601160045260246000fd5b6000610f1382610e76565b9150610f1e83610e76565b9250828201905080821115610f3657610f35610ed9565b5b92915050565b6000610f4782610e76565b91507fffffffffffffffffffffffffffffffffffffffffffffffffffffffffffffffff8203610f7957610f78610ed9565b5b600182019050919050565b6000610f8f82610c94565b9150610f9a83610c94565b9250828202610fa881610c94565b9150808214610fba57610fb9610ed9565b5b5092915050565b6000610fcc82610e76565b915060008203610fdf57610fde610ed9565b5b600182039050919050565b6000610ff582610c94565b915060ff820361100857611007610ed9565b5b600182019050919050565b600061101e82610e76565b915061102983610e76565b925082820390508181111561104157611040610ed9565b5b92915050565b7f4e487b7100000000000000000000000000000000000000000000000000000000600052601260045260246000fd5b600061108182610e76565b915061108c83610e76565b92508261109c5761109b611047565b5b828206905092915050565b60006110b282610c94565b91506110bd83610c94565b9250828201905060ff8111156110d6576110d5610ed9565b5b9291505056fea264697066735822122055e25f5afc5e42108c33feac040f4eb322f2e48e9dd912af4c9f930f2babd33e64736f6c63430008130033",
  "immutableReferences": {},
  "source": "// SPDX-License-Identifier: GPL-3.0\n\npragma solidity ^0.8.0;\n\ncontract GameBoard {\n    uint8[4][4] board;\n    uint256 score;\n\n    struct Game {\n        uint8[4][4] board;\n        uint256 score;\n    }\n\n    function newGame() public returns (string memory) {\n        for (uint8 i = 0; i < 4; i++) {\n            for (uint8 j = 0; j < 4; j++) {\n                board[i][j] = 0;\n            }\n        }\n        score = 0;\n        addRandomTile();\n        addRandomTile();\n        return 'Hello world!';\n    }\n\n    \n    function moveLeft() public {\n        for (uint i = 0; i < 4; i++) {\n            for (uint j = 1; j < 4; j++) {\n                if (board[i][j] != 0) {\n                    uint k = j;\n                    while (k > 0 && board[i][k-1] == 0) {\n                        board[i][k-1] = board[i][k];\n                        board[i][k] = 0;\n                        k--;\n                    }\n                    if (k > 0 && board[i][k-1] == board[i][k]) {\n                        board[i][k-1] = board[i][k-1] * 2;\n                        score += board[i][k-1];\n                        board[i][k] = 0;\n                    }\n                }\n            }\n        }\n        addRandomTile();\n        addRandomTile();\n    }\n\n    function moveRight() public {\n        for (uint i = 0; i < 4; i++) {\n            for (uint j = 2; j >= 0 ; j--) {\n                if (board[i][j] != 0) {\n                    uint k = j;\n                    while (k < 3 && board[i][k+1] == 0) {\n                        board[i][k+1] = board[i][k];\n                        board[i][k] = 0;\n                        k++;\n                    }\n                    if (k < 3 && board[i][k+1] == board[i][k]) {\n                        board[i][k+1] = board[i][k+1] * 2;\n                        score += board[i][k+1];\n                        board[i][k] = 0;\n                    }\n                }\n            }\n        }\n        addRandomTile();\n        addRandomTile();\n    }\n    \n    // Implement other move functions (moveRight, moveUp, moveDown) similarly\n    \n    function getBoard() public view returns (uint8[4][4] memory) {\n        return board;\n    }\n    \n    function getScore() public view returns (uint256) {\n        return score;\n    }\n\n    function addRandomTile() private {\n        uint8 emptyCount = 0;\n        for (uint8 i = 0; i < 4; i++) {\n            for (uint8 j = 0; j < 4; j++) {\n                if (board[i][j] == 0) {\n                    emptyCount++;\n                }\n            }\n        }\n        if (emptyCount == 0) {\n            return;\n        }\n        uint8 tileIndex = uint8(block.timestamp % emptyCount) + 1;\n        emptyCount = 0;\n        for (uint8 i = 0; i < 4; i++) {\n            for (uint8 j = 0; j < 4; j++) {\n                if (board[i][j] == 0) {\n                    emptyCount++;\n                    if (emptyCount == tileIndex) {\n                        board[i][j] = 2;\n                        return;\n                    }\n                }\n            }\n        }\n    }\n}",
  "sourcePath": "/home/otis/workspace/personal/boardgame2048/contracts/GameBoard.sol",
  "compiler": {
    "name": "solc",
    "version": "0.8.19+commit.7dd6d404.Emscripten.clang"
  },
  "schemaVersion": "3.4.13",
  "updatedAt": "2023-03-03T09:20:11.488Z",
  "networkType": "ethereum",
  "devdoc": {
    "kind": "dev",
    "methods": {},
    "version": 1
  },
  "userdoc": {
    "kind": "user",
    "methods": {},
    "version": 1
  }
}